{"abi":[{"type":"constructor","inputs":[],"stateMutability":"nonpayable"},{"type":"function","name":"authorize","inputs":[{"name":"who","type":"address","internalType":"address"}],"outputs":[],"stateMutability":"nonpayable"},{"type":"function","name":"authorized","inputs":[{"name":"","type":"address","internalType":"address"}],"outputs":[{"name":"","type":"bool","internalType":"bool"}],"stateMutability":"view"},{"type":"function","name":"isUsed","inputs":[{"name":"ref","type":"bytes32","internalType":"bytes32"}],"outputs":[{"name":"","type":"bool","internalType":"bool"}],"stateMutability":"view"},{"type":"function","name":"markUsed","inputs":[{"name":"ref","type":"bytes32","internalType":"bytes32"}],"outputs":[],"stateMutability":"nonpayable"},{"type":"function","name":"owner","inputs":[],"outputs":[{"name":"","type":"address","internalType":"address"}],"stateMutability":"view"},{"type":"function","name":"revoke","inputs":[{"name":"who","type":"address","internalType":"address"}],"outputs":[],"stateMutability":"nonpayable"},{"type":"function","name":"transferOwnership","inputs":[{"name":"newOwner","type":"address","internalType":"address"}],"outputs":[],"stateMutability":"nonpayable"},{"type":"function","name":"used","inputs":[{"name":"","type":"bytes32","internalType":"bytes32"}],"outputs":[{"name":"","type":"bool","internalType":"bool"}],"stateMutability":"view"},{"type":"function","name":"usedAtBlock","inputs":[{"name":"","type":"bytes32","internalType":"bytes32"}],"outputs":[{"name":"","type":"uint256","internalType":"uint256"}],"stateMutability":"view"},{"type":"function","name":"usedBy","inputs":[{"name":"","type":"bytes32","internalType":"bytes32"}],"outputs":[{"name":"","type":"address","internalType":"address"}],"stateMutability":"view"},{"type":"event","name":"Authorized","inputs":[{"name":"who","type":"address","indexed":true,"internalType":"address"},{"name":"by","type":"address","indexed":true,"internalType":"address"}],"anonymous":false},{"type":"event","name":"OwnerTransferred","inputs":[{"name":"from","type":"address","indexed":true,"internalType":"address"},{"name":"to","type":"address","indexed":true,"internalType":"address"}],"anonymous":false},{"type":"event","name":"Revoked","inputs":[{"name":"who","type":"address","indexed":true,"internalType":"address"},{"name":"by","type":"address","indexed":true,"internalType":"address"}],"anonymous":false},{"type":"event","name":"Used","inputs":[{"name":"ref","type":"bytes32","indexed":true,"internalType":"bytes32"},{"name":"by","type":"address","indexed":true,"internalType":"address"},{"name":"blockNumber","type":"uint256","indexed":false,"internalType":"uint256"}],"anonymous":false},{"type":"error","name":"AlreadyUsed","inputs":[]},{"type":"error","name":"NotAuthorized","inputs":[]},{"type":"error","name":"NotOwner","inputs":[]},{"type":"error","name":"ZeroAddress","inputs":[]},{"type":"error","name":"ZeroRef","inputs":[]}],"bytecode":{"object":"0x608060405234801561000f575f80fd5b505f80546001600160a01b031916339081178255808252600160208190526040808420805460ff191690921790915551909182917ff5a7f4fb8a92356e8c8c4ae7ac3589908381450500a7e2fd08c95600021ee8899190a36105cc806100745f395ff3fe608060405234801561000f575f80fd5b50600436106100b9575f3560e01c8063b6a5d7de11610072578063e21e9e0e11610058578063e21e9e0e146101bd578063f2fde38b146101d0578063fe255a18146101e3575f80fd5b8063b6a5d7de14610188578063b91816111461019b575f80fd5b806376cbb72c116100a257806376cbb72c146101045780638da5cb5b14610144578063b07c411f14610156575f80fd5b80631c35cdbc146100bd57806374a8f103146100ef575b5f80fd5b6100dc6100cb366004610552565b60046020525f908152604090205481565b6040519081526020015b60405180910390f35b6101026100fd366004610569565b610205565b005b61012c610112366004610552565b60036020525f90815260409020546001600160a01b031681565b6040516001600160a01b0390911681526020016100e6565b5f5461012c906001600160a01b031681565b610178610164366004610552565b60026020525f908152604090205460ff1681565b60405190151581526020016100e6565b610102610196366004610569565b61029a565b6101786101a9366004610569565b60016020525f908152604090205460ff1681565b6101026101cb366004610552565b61035a565b6101026101de366004610569565b6104a5565b6101786101f1366004610552565b5f9081526002602052604090205460ff1690565b5f546001600160a01b0316331461022f576040516330cd747160e01b815260040160405180910390fd5b6001600160a01b0381165f9081526001602052604090205460ff1615610297576001600160a01b0381165f81815260016020526040808220805460ff19169055513392917fc336937d058cc0fc95b7491390ffcf122da8cf400512d9714a76f644aa8955b791a35b50565b5f546001600160a01b031633146102c4576040516330cd747160e01b815260040160405180910390fd5b6001600160a01b0381166102eb5760405163d92e233d60e01b815260040160405180910390fd5b6001600160a01b0381165f9081526001602052604090205460ff16610297576001600160a01b0381165f818152600160208190526040808320805460ff1916909217909155513392917ff5a7f4fb8a92356e8c8c4ae7ac3589908381450500a7e2fd08c95600021ee88991a350565b335f9081526001602052604090205460ff166103a2576040517fea8e4eb500000000000000000000000000000000000000000000000000000000815260040160405180910390fd5b806103d9576040517f7d21e99a00000000000000000000000000000000000000000000000000000000815260040160405180910390fd5b5f8181526002602052604090205460ff1615610421576040517f7b8c821000000000000000000000000000000000000000000000000000000000815260040160405180910390fd5b5f818152600260209081526040808320805460ff1916600117905560038252808320805473ffffffffffffffffffffffffffffffffffffffff19163390811790915560048352928190204390819055905190815283917f6eaf64095d302672ff51c8d4de11fdb45876e1fcc3a0bf1f26afd2409a90ac8b910160405180910390a350565b5f546001600160a01b031633146104cf576040516330cd747160e01b815260040160405180910390fd5b6001600160a01b0381166104f65760405163d92e233d60e01b815260040160405180910390fd5b5f80546001600160a01b0383811673ffffffffffffffffffffffffffffffffffffffff19831681178455604051919092169283917f8934ce4adea8d9ce0d714d2c22b86790e41b7731c84b926fbbdc1d40ff6533c99190a35050565b5f60208284031215610562575f80fd5b5035919050565b5f60208284031215610579575f80fd5b81356001600160a01b038116811461058f575f80fd5b939250505056fea2646970667358221220614d91490d52ff829c9c926c62d5c26a7eb57da6783869c73d87243dc9be8ab564736f6c63430008180033","linkReferences":{}},"methodIdentifiers":{"authorize(address)":"b6a5d7de","authorized(address)":"b9181611","isUsed(bytes32)":"fe255a18","markUsed(bytes32)":"e21e9e0e","owner()":"8da5cb5b","revoke(address)":"74a8f103","transferOwnership(address)":"f2fde38b","used(bytes32)":"b07c411f","usedAtBlock(bytes32)":"1c35cdbc","usedBy(bytes32)":"76cbb72c"},"id":0}